:03000000020156A4
:0C015600787FE4F6D8FD75814602019D1B
:1001E20020202020594F552057494E2120202020E1
:1001F2000020202020544F4F204249472120202018
:10020200200020202020202020202020202020200C
:10021200202000202020544F4F20534D414C4C2190
:1002220020202000494E5020552047554553532049
:100232004E554D3A00204755455353204E554D20BB
:1002420047414D4520002073636F7065203A205B63
:08025200312C3130305D200039
:10048F0002300000024100100B213031323334357D
:10049F0036373839000D34677565737320636F75A0
:1004AF006E743A000243000002320000022C00007A
:0404BF00022E000009
:0C062200E4FFE4FE0EBE21FC0FBF0AF650
:01062E0022A9
:0205F500AD0750
:0D05F700E4FCECC39D50061206220C80F5BA
:0106040022D3
:1005A500C2A0D2A1D2A200000000A2879200C2A2DE
:0505B500A200E433FF89
:0105BA00221E
:070521007F051205F57F388C
:10052800AE071205A5EF640160F8C2A0C2A1C2A27D
:1005380000008E8000000000D2A200000000C2A2CD
:010548002290
:07000300EF4480FF02052815
:10041D007C007D6412003B7E007F0ACFCDCFCECC19
:0A042D00CE12003B74212FF8E6FF09
:10043700AE071205A5EF640160F8D2A0C2A1C2A25F
:0F0447008E8000000000D2A200000000C2A2229E
:1004F3007F0F1205231205211205217F051205F531
:100503007F0C1205287F051205F57F061205287F4B
:0E051300051205F57F011205287F050205F58A
:10058900D2AFD2A9758911758C3C758AB0D28C12FB
:0C05990004F3E4FF1200037F050205F5E7
:1005BB001203557C007D64120090ED2401F531E4AB
:0405CB003CF53022A9
:10054900AD07AC06E4F545F546C3E5469DE5459C92
:10055900500D1206220546E54670EE054580EA2251
:0E060500E4FFFE0FBF00010EBE65F8BF90F5CA
:0106130022C4
:100456008B0C8A0D890EE4FF120003E4F545F54680
:10046600C3E5469542E5459541501DAB0CAA0DA93D
:100476000E85468285458312000EFF120437054617
:09048600E54670DC054580D82232
:0603A2007BFF7A027904E2
:1003A8008B0C8A0D890E7F40120003E4F545F54653
:1003B800C3E5469542E5459541501DAB0CAA0DA9EC
:1003C8000E85468285458312000EFF1204370546C6
:0903D800E54670DC054580D822E1
:1002B5007F401200037F751204377F201204377FB9
:1002C500691204377F6E1204377F701204377F7509
:1002D5001204377F741204377F3A120437AE43AFE6
:1002E500447C007D6412042EAE43AF4412041DAE5F
:1002F50043AF447C007D0A12003B74212DF8E6FFD4
:03030500020437B8
:10025A007BFF7A0179E21204567F40120003E4F52B
:10026A0045F54674342546F8E6FF1204370546E597
:10027A004670020545C3940DE545940040E5AE2E4F
:10028A00AF2F7C007D6412042EAE2EAF2F12041DF8
:10029A00AE2EAF2F7C007D0A12003B74212DF8E6AA
:0B02AA00FF1204377F887E1302054915
:1003E10020901112060520900B740A2544F544E46F
:1003F1003543F54320912412060520911EC3E5449F
:10040100940AE543940050077543007544632274D0
:0C041100F62544F54474FF3543F5432202
:1004C40020900E1206052090080544E544700205AC
:1004D4004320911A120605209114E5444543700601
:0F04E400F54375446322E5441544700215432225
:10030800E531B54417E530B54312E4F52CF52DF584
:1003180032F53312025A1205CF0205E3D3E54495AC
:1003280031E543953040087BFF7A0179F38011C3AA
:10033800E5449531E543953050127BFF7A027915F3
:0D0348001204561203A2752C00752D01221F
:1000C600209329120605209323052DE52D700205A0
:1000D6002C6401452C70157BFF7A02792612045692
:1000E6001203A21202B5753200753301E52D6402C2
:1000F600452C700B052FE52F7002052E120308E51F
:10010600334532603B20921D1206052092170533B7
:10011600E53370020532D39402E532940040067549
:100126003200753301E5336401453270051204C4AB
:10013600800BE5336402453270061203E11202B504
:1001460020940C1206052094061205CF1205E32210
:1005E3007BFF7A0279371204567BFF7A027948023D
:0205F30003A85B
:1005CF00E4F543F544F52EF52FF52CF52DF532F521
:0405DF00330205BB23
:0E0614001205BB1205891205E31200C680FB19
:03000B0002056982
:10056900C0E0C0D0D3E5449464E5439400400675E7
:100579004300754400758C3C758AB0D0D0D0E03208
:10016200020614E493A3F8E493A34003F68001F299
:1001720008DFF48029E493A3F85407240CC8C3339E
:10018200C4540F4420C8834004F456800146F6DF6D
:10019200E4800B010204081020408090048FE47E6A
:1001A200019360BCA3FF543F30E509541FFEE49362
:1001B200A360010ECF54C025E060A840B8E493A329
:1001C200FAE493A3F8E493A3C8C582C8CAC583CA54
:1001D200F0A3C8C582C8CAC583CADFE9DEE780BE0C
:0104C3000038
:10000E00BB010CE58229F582E5833AF583E02250A7
:10001E0006E92582F8E622BBFE06E92582F8E222F1
:0D002E00E58229F582E5833AF583E493220B
:10003B00BC000BBE0029EF8DF084FFADF022E4CCA9
:10004B00F875F008EF2FFFEE33FEEC33FCEE9DEC72
:10005B00984005FCEE9DFE0FD5F0E9E4CEFD22EDB8
:10006B00F8F5F0EE8420D21CFEADF075F008EF2F02
:10007B00FFED33FD4007985006D5F0F222C398FDF3
:05008B000FD5F0EA2290
:10009000C2D5EC30E709B2D5E4C39DFDE49CFCEE8B
:1000A00030E715B2D5E4C39FFFE49EFE12003BC3C8
:1000B000E49DFDE49CFC800312003B30D507C3E4C3
:0600C0009FFFE49EFE22FA
:10035500AC08AD09AE0AAF0B7810EC4D4E4F7004EA
:100365007CA57DA5C3EC13FCED13FDEE13FEEF1389
:10037500FF5010EC64CCFCED644CFDEE644EFEEFDA
:1003850064CEFFD8DF8C088D098E0A8F0BEE547F63
:0D039500FE228E088F0974A5F50AF50B22D3
:00000001FF
